:020000040800F2
:10000000B80F002069020008635F00087F550008F0
:10001000615F00081D050008817D000800000000E8
:10002000000000000000000000000000596500080A
:100030008D0B000800000000D9620008B16E0008B6
:10004000830200088302000883020008830200087C
:10005000830200088302000883020008830200086C
:10006000830200088302000883020008050B0008D1
:100070008302000883020008110B00081D0B000812
:10008000830200088302000883020008830200083C
:10009000830200088302000883020008830200082C
:1000A00083020008B970000883020008D16F0008BD
:1000B0005D710008830200088302000883020008C3
:1000C00083020008830200088302000883020008FC
:1000D00083020008757D000883020008830200087F
:1000E0007D0C0008830200088302000883020008D8
:1000F00083020008830200088302000883020008CC
:100100000000000000000000000000008302000862
:1001100083020008830200087D710008BD71000899
:10012000290B0008350B0008830200088302000831
:10013000410B0008830200080000000000000000DE
:10014000210500082D0500088302000800000000BA
:10015000000000000000000000000000000000009F
:100160000000000000000000830200088302000875
:1001700083020008000000000000000000000000F2
:10018000000000008302000800F002F800F05CF8B4
:100190000AA090E8000C82448344AAF10107DA45E2
:1001A00001D100F051F8AFF2090EBAE80F0013F0D8
:1001B000010F18BFFB1A43F0010318472C950000EC
:1001C0004C9500000A444FF0000C10F8013B13F06E
:1001D000070408BF10F8014B1D1108BF10F8015BA0
:1001E000641E05D010F8016B641E01F8016BF9D193
:1001F00013F0080F1EBF10F8014BAD1C0C1B09D1EA
:100200006D1E58BF01F801CBFAD505E014F8016B5B
:1002100001F8016B6D1EF9D59142D6D370470000ED
:100220000023002400250026103A28BF78C1FBD8FF
:10023000520728BF30C148BF0B6070471FB509F097
:100240006CF91FBD10B510BD00F058F81146FFF74E
:10025000F5FF08F053FA00F076F803B4FFF7F2FF69
:1002600003BC00F079F800000948804709480047BE
:10027000FEE7FEE7FEE7FEE7FEE7FEE7FEE7FEE756
:10028000FEE7FEE704480549054A064B70470000B3
:10029000696F000889010008B8090020B80F002024
:1002A000B80B0020B80B0020B2F120030AD5C2F130
:1002B000200320FA02F001FA03F321FA02F140EAE6
:1002C0000300704721FA03F04FF0000170477047B8
:1002D0007047704710B500F009F8006810BD10B500
:1002E000044600F003F8046010BD000000487047A9
:1002F0005809002000487047580900207546FFF74C
:10030000F9FFAE4605006946534620F007008546D2
:1003100018B020B5FFF7B6FFBDE820404FF000064B
:100320004FF000074FF000084FF0000B21F00701DD
:10033000AC46ACE8C009ACE8C009ACE8C009ACE820
:10034000C0098D46704710B50446AFF300802046C3
:10035000BDE81040FFF781BF01491820ABBEFEE7A2
:10036000260002007047000070B504460020226895
:10037000936813F00C0F58D0D3689B011BD5E36929
:10038000012B18D1A369012B15D10C21284B0CE0AE
:10039000984209D3606C40F010006064A06C40F09B
:1003A0000100A064012070BD401C1568ED436D067E
:1003B000EED44020106060290AD02068826852077D
:1003C00006D58268920703D4826842F010028260E8
:1003D0000C290AD020688268120706D58268920725
:1003E00003D4826842F020028260602908D06C2920
:1003F00004D0042502F0C2FE064612E00C25F9E7FF
:100400000825F7E702F0BAFE801B0B2809D9606CBB
:1004100040F010006064A06C40F00100A064012076
:1004200070BD206880682842ECD1002070BD0000BB
:100430000094090070B504462068816801F003014A
:1004400001292FD10168C9072CD0816801F00D0165
:10045000012909D0606C40F010006064A06C40F08D
:100460000100A064012070BD816841F0020181603B
:1004700021680320086002F081FE05460EE002F0CC
:100480007DFE401B022809D9606C40F010006064BA
:10049000A06C40F00100A064012070BD206880685D
:1004A000C007ECD1002070BD70B50446206881689B
:1004B00001F00301012902D10168C90729D181682E
:1004C000154A114209D0606C40F010006064A06CC5
:1004D00040F00100A064012070BD816841F001017D
:1004E000816002F04BFE05460EE002F047FE401B25
:1004F000022809D9606C40F010006064A06C40F0E4
:100500000100A064012070BD20680068C043C007DE
:10051000EBD1002070BD00003F000080FEE700002E
:10052000014802F07BB9000014060020014802F0E7
:1005300075B900004006002010B52DED028BB0EE1D
:10054000408A0D480D49006809680844400800EEDB
:10055000100AB8EE400ADFED0A0A20EE200AF0EE9B
:10056000000A07F071FD60EE080A9FED061A81EEA1
:10057000200ABDEC028B10BD2400002028000020C2
:10058000F90FC9400024744910B52DED048BB0EE6D
:10059000409A194800681949401C0968484318499D
:1005A00080000968B1FBF0F000EE900AF8EE600AF6
:1005B0009FED141A144860EE810A90ED191A60EE4E
:1005C000810A10EE900A08F037FF41EC180B19EE83
:1005D000100A08F031FF41EC100B07F0E6FB53EC7A
:1005E000182B51EC100B08F0E1FA08F0F9F900EEC5
:1005F000100ABDEC048B10BD282C01400C0000201B
:1006000000000020F90FC9406800002010B52DED52
:10061000048BB0EE609A10EE100A08F00DFF41EC6A
:10062000100B07F0C2FB0C48B0EE408AF0EE608A77
:1006300090ED190A29EE000A10EE100A08F0FCFEEF
:1006400053EC182B08F0B2FA08F0CAF900EE100AC1
:10065000BDEC048B10BD00006800002010B52DED2E
:10066000028BB0EE608A10EE100A08F0E5FE41EC55
:10067000100B07F09AFB51EC100B08F0B1F900EEEB
:10068000100AF0EE000A07F0DFFCF6EE000A20EE9A
:10069000200A20EE088A18EE100A08F0CDFE41EC80
:1006A000100B07F082FB9FED171B51EC100B53EC66
:1006B000112B08F095FD01D29FED148A18EE100A57
:1006C00008F0BAFE41EC100B07F06FFB9FED101B1A
:1006D00051EC100B53EC112B08F048FC01D29FEDAC
:1006E0000E8A18EE100A08F0A7FE41EC100B07F076
:1006F0005CFB51EC100B08F073F9BDEC028B00EEC3
:10070000100A10BD000000000094C14000A40C4677
:10071000000000A0F7C6B03E0000000010B52DEDAF
:10072000048BB0EE409AF0EE609AF0EE418A4348B6
:1007300000789FED430A00284BD04248D0ED000AD4
:100740004148F8EE600A20EE801AD0ED000AF8EE7B
:10075000600A81EE208A3D4890F82A00012847D09F
:1007600081EE880A10EE100A08F066FE89EE290A6A
:1007700041EC180B10EE100A08F05EFE41EC100B75
:1007800007F013FB51EC100B08F02AF900EE100AE9
:1007900007F0A4FB10EE100A08F04EFE41EC100B1F
:1007A00007F003FB53EC182B51EC100B08F01AFC6C
:1007B00008F016F908F040FE41EC100B07F0F5FACE
:1007C00051EC100B08F00CF9BDEC048B00EE100A94
:1007D00010BD1F48B0EE001A408A00EE900AF8EEF5
:1007E000600A60EE810AB7EE001A81EE208AB2E755
:1007F00079EE690A70EE800A89EE200A10EE100A7E
:1008000008F01AFE41EC100B07F0CFFA9FED112B08
:1008100051EC100B53EC122B08F024FD88EE280A43
:1008200041EC190B10EE100A08F006FE53EC192BE0
:1008300008F0D8FB08F0D4F8BCE700003400002032
:10084000BD378635380000201C000020D408002069
:1008500068000020000000000000E03F10B5554C8B
:10086000002A1ED0DFED540AC4ED1A0ADFED530A48
:100870009FED531A012B19D0022B3BD0DFED511AFB
:10088000B3EE092A032B59D0042B09D1012879D0C2
:1008900001296FD094ED1A0A20EE021A81EE200A87
:1008A00010BDDFED490AC4ED1A0ADFE701280AD0BE
:1008B0009FED460A012916D094ED1A1A21EE001A6E
:1008C00081EE200A10BD012906D094ED1A0A20EE0F
:1008D000201A81EE200A10BD94ED1A0A60EE200A5B
:1008E00080EE810A10BDD4ED1A0A60EE800A80EE17
:1008F000810A10BD01280AD001299FED350A16D0C2
:1009000094ED1A1A21EE001A81EE200A10BD012979
:1009100006D094ED1A0A20EE011A81EE200A10BDCD
:1009200094ED1A0A60EE010A80EE810A10BDD4ED42
:100930001A0A60EE800A80EE810A10BD012808D0F4
:10094000012918D094ED1A0A20EE021A81EE200A2D
:1009500010BD012906D094ED1A0A20EE211A81EE6D
:10096000200A10BD94ED1A0A60EE210A80EE810A79
:1009700010BD07E016E094ED1A0A60EE020A80EE60
:10098000810AF5E7012906D094ED1A0A20EE211A12
:1009900081EE200AECE794ED1A0A60EE210A80EE5F
:1009A000810AE5E794ED1A0A60EE020A80EE810AF8
:1009B000DEE7000068000020000007440000164346
:1009C0000000DC420000484200009B4300009642C9
:1009D00000005C420FB40EB506A900918DF804002A
:1009E0009DF81400662806D069280FD10698091DC5
:1009F000009102900AE0C91D21F00700B0EC020B43
:100A0000009051EC100B07F0EBFF02904FF0FF331A
:100A1000012201A9054804F033FD042202A903487C
:100A200004F08BFD03B05DF814FB00001C050020F2
:100A30002DE9F0412D482B4C2B4A03682D4D58428F
:100A4000E6782B4912682D6800EB800003EB8303E6
:100A50000A2E08D2DFE806F00509101C282E1939E5
:100A6000073F0120E070BDE8F081520802EB001062
:100A700008600920E070F6E705EB830008601E4877
:100A800003F0B8FB0620E070EDE70320E070EAE732
:100A900002EB00100860A079012802D1164803F08B
:100AA000B5FB0420E070DEE705EB031008600520CD
:100AB000E070D8E7114A124B12681B68D21A02EB99
:100AC000001008600720E070CDE70B4803F09EFBA4
:100AD0000820E070C7E7084803F098FB0A20E070A0
:100AE000C1E7000068000020440000201C00002036
:100AF0002C1400404C0000208C07002038000020FF
:100B00003C000020014802F09AB800000C030020CD
:100B1000014802F094B80000D0050020014802F01E
:100B20008EB800008C050020014802F088B8000053
:100B300050030020014802F082B80000D8030020D2
:100B4000014802F07CB80000940300200C4B0168BF
:100B50001422994208D20B4B1944B1FBF2F18900DF
:100B600001640949C1637047054B5B421944B1FBFD
:100B7000F2F18900016402490839C163704700003D
:100B800008040240F8FFFDBF00000240704700006B
:100B9000F0B4204A002151731F4800681F4B401CCD
:100BA00058431F4B1C681F4BB4FBF0F018601E4BE2
:100BB0001E4D1B682D682B445B0853821C4B1E4E38
:100BC0001B685D001B4B45431B6803FB00553560EC
:100BD0001A4D43432B601A4B00EB80004000186015
:100BE00018480170022010709171D1701648017080
:100BF0001648836A5B1C5B00B4FBF3F3C36241627B
:100C0000D079002803D1F0BC114803F0F3BAF0BC4E
:100C10007047000068000020282C014080841E00DE
:100C2000000000201C0000202400002028000020DC
:100C300010000020140000204C0000205000002074
:100C4000540000202000002034000020001000404C
:100C50004C070020034801214172017300214173B8
:100C6000FFF796BF6800002003480021417201226F
:100C700002734173FFF78CBF6800002010B54FF47A
:100C8000806002F097F94FF4006002F093F9BDE83C
:100C900010404FF4805002F08DB900002DE9F04172
:100CA0000021284804F027F82749486000212548FA
:100CB00004F021F84FF08043996A234C491C4843C3
:100CC00022490968B1FBF0F0801E803C80B260824E
:100CD0001F4A1268521C42439200B1FBF2F11D4AB6
:100CE000116000265E6223791B4D012B01D101B1F9
:100CF0002E7048F20F03994201D902232B70B1F5EF
:100D0000004F02D347F6FF711160218A01F12D02D5
:100D1000904202D82D39884204DA208206F006FD7E
:100D200005F012FF2878012738B1022803D106F018
:100D30000FF82F702771BDE8F08105F07FFF2F704D
:100D40002671F8E70C070020E800002000000020D2
:100D5000282C01400C000020200000200649002023
:100D6000C8610648016941F004010161016941F06F
:100D70004001016170470000380900200020024056
:100D8000064A0021D16106490A6942F002020A615D
:100D90004861086940F04000086170473809002048
:100DA00000200240044B0022DA61044A136943F038
:100DB00001031361018070473809002000200240C0
:100DC00000200A4AD168CB06094904D5C86940F019
:100DD0000200C8611020D3685B0705D5CB6943F0DA
:100DE0000103CB6140F00400D06070470020024056
:100DF0003809002070B5044602F0C0F90546104ECF
:100E000009E0601C07D024B102F0B8F9401BA042F1
:100E100001D9032070BDF068C007F2D1F0688006E8
:100E200001D52020F060F068C00602D4F0684007C9
:100E300003D5FFF7C5FF012070BD002070BD000085
:100E40000020024070B5994D95F83060DFED980AAA
:100E5000984C4FF47A70A5F18803226802FB00F1E8
:100E600004F180009FED940A012E66D083ED030A01
:100E700083ED070A83ED1B0A83ED130A83ED0B0A4A
:100E800083ED0F0A83ED170A95F83160012E7DD0AE
:100E900083ED040A83ED080A83ED1C0A83ED140A2E
:100EA00083ED0C0A83ED100A83ED180A95F8326081
:100EB000012E6CD083ED050A83ED090A83ED1D0A2E
:100EC00083ED150A83ED0D0A83ED110A83ED190AEE
:100ED00095F83350012D7DD083ED060A83ED0A0A83
:100EE00083ED1E0A83ED160A83ED0E0A83ED120AC6
:100EF00083ED1A0A0021216080ED0A0A80ED0B0AB9
:100F000080ED0C0A80ED0D0A84ED1E0A84ED1F0AA7
:100F100080ED000A80ED010A80ED0E0A80ED0F0AD7
:100F200080ED100A80ED110A80ED020A80ED030ABF
:100F300080ED040A80ED050A70BD01EE102AD0EDA7
:100F40000A1AB8EE411A81EE812A83ED032A90ED48
:100F50000E1A83ED071A94ED0E1A21EE201A83ED76
:100F60001B1A94ED1A1A83ED131A01EE101AD4ED20
:100F70001E1AB8EE411A81EE812A83ED0B2A90EDFC
:100F8000021AC1EE201AC3ED0F1A01E005E033E0AA
:100F900094ED0A1A83ED171A76E701EE102AD0EDC8
:100FA0000B1AB8EE411A81EE812A83ED042A90EDE6
:100FB0000F1A83ED081A94ED0F1A21EE201A83ED13
:100FC0001C1A94ED1B1A83ED141A01EE101AB8EED8
:100FD000411A00E03DE0D4ED1F1A81EE812A83ED35
:100FE0000C2A90ED031AC1EE201AC3ED101A94EDED
:100FF0000B1A83ED181A59E701EE102AD0ED0C1ADE
:10100000B8EE411A81EE812A83ED052A90ED101A7F
:1010100083ED091A94ED101A21EE201A83ED1D1AA2
:1010200094ED1C1A83ED151A01EE101AD0ED001A7A
:10103000B8EE411A81EE812A83ED0D2A90ED041A53
:10104000C1EE201AC3ED111A94ED0C1A83ED191A92
:101050003EE701EE102AD0ED0D1AB8EE411A81EEEE
:10106000812A83ED062A90ED111A83ED0A1A94ED78
:10107000111A21EE201A83ED1E1A94ED1D1A83ED2C
:10108000161A01EE101AD0ED011AB8EE411A81EECF
:10109000812A83ED0E2A90ED051AC1EE201AC3EDC8
:1010A000121AD4ED0D0AC3ED1A0A23E7D408002062
:1010B00000007A44E80000200000000070B5224DD6
:1010C00028682249401C484321490A682149B2FB4B
:1010D000F0F00860204900260E702049214C096874
:1010E0004B001F494343096801FB003323601E4B3B
:1010F000414319601D4900EB8000400008601C4C12
:1011000026701C49032008701B481C4990F82700D2
:10111000087028681A49401C098848438000B2FBBF
:10112000F0F01849086006F001FB05F00DFD20788D
:10113000012528B1022802D105F00AFE257070BDF4
:1011400005F07CFD257070BD282C014080841E00B8
:10115000000000201C0000202200002010000020C1
:10116000140000204C0000205000002054000020FB
:101170002000002068000020D40800203400002057
:10118000320000200C0000202DE9F05F2DED048BD3
:10119000FFF74EFCFE4FDFF8FCB34FF4004AF8783F
:1011A00007F18008032842D0012840D0012251468F
:1011B000584601F0DCFFF84801F068FAF74801F002
:1011C00065FAF74801F062FAF64801F05FFA01218A
:1011D000F14801F0C3F90121F04801F0BFF9012104
:1011E000EF4801F0BBF90121EE4801F0B7F9EA48F8
:1011F00000F082FFC8F80800E84800F07DFFC8F85A
:101200000C00E74800F078FFC8F81000E54800F04F
:1012100073FFC8F81400E04801F0E0FADF4801F07D
:10122000DDFADF4801F0DAFADE4801F0D7FA9FED87
:10123000DE0ADE4D85ED060A85ED070A85ED080A12
:1012400085ED090A88ED160A88ED170A88ED180A57
:1012500088ED190AF878001F9FEDD52ADFEDD52A11
:101260009FEDD58AD54C07287DD2DFE800F0EEED62
:101270007CECEB04EA0098ED020AB8EE400A60EE5E
:10128000020A97ED150A10EEA20A87ED050AD8EDBD
:10129000030AF8EE600A20EE821AD7ED160A51EE24
:1012A000220AC7ED070AD8ED040AF8EE600A20EE1C
:1012B000821AD7ED170A51EE220AC7ED090AD8EDB6
:1012C000050AF8EE600A20EE821AD7ED180A51EEF0
:1012D000220AC7ED0B0ADFF8E49209F1880999F8B0
:1012E00030009FEDB78B9FEDB89B012600250128AC
:1012F00055D084F8835084F87F5099F83100012844
:1013000077D084F8845084F8805099F8320001280E
:101310006BD084F8855084F8815099F83300012807
:1013200078D0823425712570D7ED1B0A97ED050A18
:10133000FFF76CF988ED0E0AD7ED1C0A97ED070A46
:10134000FFF764F988ED0F0AD7ED1D0A97ED090A3A
:10135000FFF75CF988ED100AD7ED1E0A97ED0B0A2E
:10136000FFF754F900E020E288ED110A98ED0E0A2B
:10137000FFF7E2F888ED0A0A98ED0F0AFFF7DCF8AC
:1013800088ED0B0A98ED100AFFF7D6F888ED0C0AE5
:1013900098ED110AFFF7D0F888ED0D0AC9E310EEB9
:1013A000100A08F049F841EC100B06F0FEFC53EC73
:1013B000182B51EC100B07F0D9FD02D284F8836092
:1013C00001E084F88350786908F036F841EC100B9E
:1013D00006F0EBFC53EC192B51EC100B07F000FF5F
:1013E00004D284F87F6088E703E02FE084F87F5020
:1013F00083E7F86908F020F841EC100B06F0D5FC03
:1014000053EC182B51EC100B07F0B0FD03D284F80D
:10141000846002E041E084F88450F86908F00CF838
:1014200041EC100B06F0C1FC53EC192B51EC100BE6
:1014300007F0D6FE02D284F8806066E784F8805018
:1014400063E751E001E281E067E017E2786A07F0C4
:10145000F3FF41EC100B06F0A8FC53EC182B51ECF9
:10146000100B07F083FD02D284F8856001E084F858
:101470008550786A07F0E0FF41EC100B06F095FC10
:1014800053EC192B51EC100B07F0AAFE02D284F892
:10149000816042E784F881503FE7F86A07F0CCFFAB
:1014A00041EC100B06F081FC53EC182B51EC100BA7
:1014B00007F05CFD02D284F8866001E084F8865073
:1014C000F86A07F0B9FF41EC100B06F06EFC53EC24
:1014D000192B51EC100B07F083FE02D284F88260C6
:1014E00022E784F882501FE798ED020AB8EE400A1E
:1014F00087ED060A98ED030AB8EE400A87ED080A60
:1015000098ED040AB8EE400A87ED0A0A98ED050A3C
:10151000B8EE400A87ED0C0A0BE398ED020AB8EE2C
:10152000400A87ED060A98ED030AB8EE400A87EDF7
:10153000080A98ED040AB8EE400A87ED0A0A98ED09
:10154000050AB8EE400A87ED0C0AF2E2D8F800006E
:10155000401CC8F8000098ED020AB8EE400A60EEA0
:10156000020A97ED150A10EEA20A87ED050AD8EDDA
:10157000030AF8EE600A20EE821AD7ED160A51EE41
:10158000220AC7ED070AD8ED040AF8EE600A1FE048
:101590006800002000080048BC0100201002002064
:1015A00064020020B8020020000000006801002052
:1015B00033335340000080393333533A4C08002012
:1015C00000000040E17A843F000000A09999D93FD3
:1015D00020EE821AD7ED170A51EE220AC7ED090A4A
:1015E000D8ED050AF8EE600A20EE821AD7ED180A47
:1015F00051EE220AC7ED0B0AFEF7C6FF85ED060A7B
:1016000097ED070AFEF7C0FF85ED070A97ED090A77
:10161000FEF7BAFF85ED080A97ED0B0AFEF7B4FF57
:1016200085ED090A95ED0A1AD5ED060A31EE201A64
:1016300085ED0A1AD5ED0B1A95ED071A71EE811A90
:10164000C5ED0B1A95ED0C2AD5ED081A32EE212ABC
:1016500085ED0C2A95ED0D2A32EE002A85ED0D2A36
:1016600095ED0E2AF4EEC20AF1EE10FA01DDC5ED99
:101670000E0AD5ED0F0AB4EEE01AF1EE10FA01DD14
:1016800085ED0F1AD5ED100AF4EEE01AF1EE10FA1E
:1016900001DDC5ED101AD5ED110AB4EEE00AF1EE48
:1016A00010FA01DD85ED110AD8F8000001287CD977
:1016B00097ED0E0A60EE080A97ED100A20EE080A70
:1016C00097ED121A21EE081AD7ED141A61EE881A56
:1016D00097ED152A70EEC20AC7ED0E0A97ED162A8D
:1016E00030EE420A87ED100A97ED170A31EE400AF4
:1016F00087ED120A97ED180A31EEC00A87ED140A39
:1017000094F87D0002283BD1D8ED0E1A98ED061A08
:1017100097ED0D0AFFF702F888ED120AD8ED0F1ABF
:1017200098ED071AD7ED100A97ED0F0AFEF7F6FFAE
:1017300088ED130AD8ED101A98ED081AD7ED120AA1
:1017400097ED110AFEF7EAFF88ED140AD8ED111A99
:1017500098ED091AD7ED140A97ED130AFEF7DEFF8C
:1017600088ED150AD8ED120AC8ED1A0AD8ED130A49
:10177000C8ED1B0AD8ED140AC8ED1C0A88ED1D0A35
:10178000D8ED120A95ED060AFEF768FF88ED160AF5
:10179000D8ED130A95ED070AFEF760FF88ED170AEA
:1017A000D8ED140A95ED080A00E04DE0FEF756FF6B
:1017B00088ED180AD8ED150A95ED090AFEF74EFFD7
:1017C00088ED190A98ED1E1AD8ED160A31EE201A86
:1017D00088ED1E1AD8ED1F1A98ED171A71EE811AAE
:1017E000C8ED1F1A95ED002AD8ED181A32EE212AFD
:1017F00085ED002A95ED012A32EE002A85ED012AB9
:1018000095ED022AF4EEC20AF1EE10FA01DDC5ED03
:10181000020AD5ED030AB4EEE01AF1EE10FA01DD8A
:1018200085ED031AD5ED040AF4EEE01AF1EE10FA94
:1018300001DDC5ED041AD5ED050AB4EEE00AF1EEBE
:1018400010FA01DD85ED050A73E198ED020AB8EEA4
:10185000400A87ED0E0A98ED030AB8EE400A87EDBC
:10186000100A98ED040AB8EE400A87ED120A98EDC6
:10187000050AB8EE400A87ED140A5AE1D8F80000CC
:10188000401CC8F8000098ED020AD7ED150AB8EE22
:10189000400AB0EE603A20EE020A50EE220AC7ED8E
:1018A0000D0AB0EE600AD8ED030AD7ED161AF8EE6D
:1018B000600A20EE821AF0EE610A51EE220AC7EDAC
:1018C0000F0AD8ED040A97ED171AF8EE600A60EED9
:1018D000823AF0EE410A53EEA20AC7ED110AD8EDA2
:1018E000050AF8EE600A60EE823A97ED182AF0EEEB
:1018F000420A53EEA20AC7ED130AD7ED060A60EEBC
:10190000882AD7ED080A60EE884AD7ED0A0A60EE09
:10191000883AD7ED0C0A20EE884A72EEC30AC7ED6A
:10192000060A74EEE10AC7ED080A73EEC10AC7EDB4
:101930000A0A74EE420AC7ED0C0AFEF725FE85ED91
:10194000060A97ED0F0AFEF71FFE85ED070A97EDD1
:10195000110AFEF719FE85ED080A97ED130AFEF746
:1019600013FE85ED090A95ED0A1AD5ED060A31EE4A
:10197000201A85ED0A1AD5ED0B1A95ED071A71EEAE
:10198000811AC5ED0B1A95ED0C2AD5ED081A32EE29
:10199000212A85ED0C2A95ED0D2A32EE002A85EDDF
:1019A0000D2A95ED0E2AF4EEC20AF1EE10FA01DDD1
:1019B000C5ED0E0AD5ED0F0AB4EEE01AF1EE10FAFD
:1019C00001DD85ED0F1AD5ED100AF4EEE01AF1EE07
:1019D00010FA01DDC5ED101AD5ED110AB4EEE00ADA
:1019E000F1EE10FA01DD85ED110A94F87D00022870
:1019F0003DD1D8ED0E1A98ED061AD7ED060A97EDEF
:101A0000050AFEF78BFE88ED120AD8ED0F1A98ED45
:101A1000071AD7ED080A97ED070AFEF77FFE88ED53
:101A2000130AD8ED101A98ED081AD7ED0A0A97EDA7
:101A3000090AFEF773FE88ED140AD8ED111A98ED25
:101A4000091AD7ED0C0A97ED0B0AFEF767FE88ED31
:101A5000150AD8ED120AC8ED1A0AD8ED130AC8ED16
:101A60001B0AD8ED140AC8ED1C0A88ED1D0AD8ED32
:101A7000120A95ED060AFEF7F1FD88ED160AD8ED7B
:101A8000130A95ED070AFEF7E9FD88ED170AD8ED70
:101A9000140A95ED080AFEF7E1FD88ED180AD8ED65
:101AA000150A95ED090AFEF7D9FD88ED190A98ED9A
:101AB0001E1AD8ED160A31EE201A88ED1E1AD8ED3E
:101AC0001F1A98ED171A71EE811AC8ED1F1A95EDBD
:101AD000002AD8ED181A32EE212A85ED002A95ED5C
:101AE000012A32EE002A85ED012A95ED022AF4EE54
:101AF000C20AF1EE10FA01DDC5ED020AD5ED030AC6
:101B0000B4EEE01AF1EE10FA01DD85ED031AD5ED21
:101B1000040AF4EEE01AF1EE10FA01DDC5ED041A44
:101B2000D5ED050AB4EEE00AF1EE10FA01DD85ED1F
:101B3000050A5146BDEC048B58460022BDE8F05F13
:101B400001F015BB0068012904D0D0F8B40000F002
:101B50007F007047D0F8B400000C704710B590F8C3
:101B60004030012B09D0012380F8403003689C6885
:101B700004F00304012C02D008E0022010BD1C6810
:101B8000E40703D09C6814F00C0F0CD0416C41F0BA
:101B900020014164816C41F001018164002180F8E1
:101BA0004010084610BD012906D053F8B41F21F09B
:101BB0007F0111431960F1E753F8B41F21F4FE01CE
:101BC00041EA02411960E9E72DE9F04104460D467A
:101BD00094F8400001280FD04FF0010884F84080AD
:101BE0002046FEF727FC064600273EB1012684F872
:101BF00040703046BDE8F0810220FBE7C4F8448025
:101C00002068816821F080418160012D04D1206825
:101C1000816841F0804181602068816841F0004125
:101C2000816001F0ABFA05460EE001F0A7FA401B17
:101C30000A2809D9606C20F0020040F010006064AE
:101C400084F840700120D5E7206880680028ECDB2C
:101C5000606C20F0020040F001006064C7E7000003
:101C6000F0B595B0002390F84020012A0BD0012256
:101C700080F8402002684FF0A0453A4C0026AA4266
:101C800004D1009413E0022015B0F0BDA24201D1AE
:101C900000950CE0344FDFF8D4C0BA4202D1CDF841
:101CA00000C004E0624501D1009700E0009697680B
:101CB0007F074DD4009FBF687F0749D4AA4201D057
:101CC000A24201D12A4A00E02A4A0C6840F61F7558
:101CD0001CB39468476B24F4604444EA47344F686B
:101CE0003C4394600468A76807F00307012F02D102
:101CF0002468E40731D1009CA46804F00304012C9B
:101D000003D1009C2468E40727D10C6889680C4340
:101D10009168A9430C4394601FE0916821F46041ED
:101D2000916001688C6804F00304012C02D10968F9
:101D3000C90712D10099896801F00301012903D173
:101D400000990968C90708D19168A943916004E026
:101D5000416C41F020014164012380F84060184645
:101D600092E7000000010050000400500005005000
:101D700000030050000700502DE9F04196B0002507
:101D80000026009690F84020012A19D0012780F8FB
:101D90004070026893685B077ED44B681F24052B54
:101DA00012D2D2F830C003EB43035B009C402CEA14
:101DB000040C0C689C404CEA040CC2F830C036E0BD
:101DC000022016B0BDE8F0810A2B0FD2D2F834C041
:101DD0005B1F03EB43035B009C402CEA040C0C6884
:101DE0009C404CEA040CC2F834C020E00F2B0FD208
:101DF000D2F838C00A3B03EB43035B009C402CEA5B
:101E0000040C0C689C404CEA040CC2F838C00EE08C
:101E1000D2F83CC00F3B03EB43035B009C402CEA31
:101E2000040C0C689C404CEA040CC2F83CC00268EC
:101E300093684FF0070C13F00C0F63D10B680A2B5B
:101E40000FD394690A3B03EB43030CFA03F824EA2B
:101E50000804D1F8088008FA03F844EA08049461F9
:101E60000DE0546903EB43030CFA03F824EA080479
:101E7000D1F8088008FA03F844EA080454610268BB
:101E80004B69D468C4F3C1046400A3400C69DFF853
:101E90004882012C3DD000E015E1022C45D0032CF6
:101EA0004FD0042C59D0136E0C7803F0F843B3EBE9
:101EB000846F03D1136E23F0004313660268536EE0
:101EC0000C7803F0F843B3EB846F03D1536E23F027
:101ED000004353660268936E0C7803F0F843B3EB4B
:101EE000846F03D1936E23F0004393660268D36E30
:101EF0000C7803F0F843B3EB846F03D1D36E23F077
:101F00000043D3660268936803F00303012B33D1C7
:101F10002FE0146E04EA080491F8008043EA886315
:101F20001C4344F000431366ECE7546E04EA0804D3
:101F300091F8008043EA88631C4344F000435366F1
:101F4000E0E7946E04EA080491F8008043EA8863AD
:101F50001C4344F000439366D4E7D46E04EA0804BB
:101F600091F8008043EA88631C4344F00043D36641
:101F7000C8E71368DB077CD1CB68012B06D052F889
:101F8000B03F0C78A740BB43136023E052F8B03F4A
:101F90000C78A7403B4313600A680A2A0DD30368F4
:101FA0009C69093A02EB42020CFA02FC8F6824EAAF
:101FB0000C0497403C439C610CE003685C69521C34
:101FC00002EB42020CFA02FC8F6824EA0C049740F0
:101FD0003C435C6103684FF0A044404FA34201D0F2
:101FE000BB4201D13E4A00E03E4A0968102904D1B3
:101FF000D2F808C05FEA0C2C0DD5112904D1D2F813
:1020000008C05FEACC1C06D5122961D1D2F808C0FD
:102010005FEA4C2C5CD4A34201D1019710E0BB4293
:1020200001D101940CE0304FDFF8C0C0BB4202D1B7
:10203000CDF804C004E0634501D1019700E00196AA
:102040009F6807F00307012F02D11F68FF070BD11C
:10205000019F7FB1019FBF6807F00307012F09D1DE
:10206000019F3F68FF0705D0416C41F020014164AA
:1020700001252DE0102916D1A34214D1916841F415
:10208000000191601A491B4A0968B1FBF2F101EBAA
:1020900081014900009102E00099491E00910099D8
:1020A0000029F9D114E0112906D1A34204D1916885
:1020B00041F0807191600BE0122909D1916841F4DF
:1020C0008001916004E0416C41F0200141640125F0
:1020D00080F84060284674E600F0FF83000100505D
:1020E000000300500007005000040050000500509D
:1020F0000000002040420F000068006C70470000A4
:102100002DE9F04196B004460025002700260096F0
:10211000002C05D0606CC0064DD4606C20B138E056
:10212000012016B0BDE8F081A6642665E66484F857
:102130004060204600F012F920688068C00028D472
:102140002046FEF777F90546606C00F01001294340
:102150001FD1606C20F4885040F002006064206859
:10216000816821F0405181602068816841F0805190
:102170008160724872490068B0FBF1F000EB8000AA
:102180004000009002E00098401E00900098002857
:10219000F9D120688168C90002D5806880000AD51D
:1021A000606C20F0020040F010006064A06C40F011
:1021B0000100A0640125606C00F01000284370D17C
:1021C0002068816849076CD4616C21F4807141F00A
:1021D000020161644FF0A0485A4A404501D0904244
:1021E00001D1594900E05949594BDFF868C14045D0
:1021F00001D101920EE0904202D1CDF8048009E0B5
:10220000604501D1019305E0984202D1CDF804C0A8
:1022100000E00196826802F00302012A02D1006800
:10222000C00711D1019848B10198806800F00300FF
:10223000012803D101980068C00705D18868626849
:1022400020F4403010438860D4E902100843A16BA9
:10225000012902D04FF4805200E00022E16942EAF5
:10226000413210433843626A012A0AD1D1B1616C0C
:1022700021F0020141F020016164A16C41F00101F3
:10228000A164E16A012920D02268624501D09A4206
:1022900018D14FF430734FF4E072994209D11146CE
:1022A00010E041E0218D491E40EA414040F4803079
:1022B000E7E74FF48077B94201D1194602E0914235
:1022C00000D139460143206B084321688A6812F027
:1022D0000C0F0AD1CA6844F202039A43CA60A1698A
:1022E000626B890341EA420108432168CA681A4BBC
:1022F0001A400243CA60206901280CD02068016B93
:1023000021F00F010163A664606C20F0020040F030
:10231000010060640FE02068016B226A21F00F0168
:10232000521E11430163EEE7606C20F0020040F0A2
:102330001000606401252846F3E60000000000203C
:1023400040420F0000010050000300500007005001
:10235000000500500004005007C0F0FF2DE9F04FC9
:1023600087B004467049206800260A686F4B8027B2
:10237000521C4FF0030C4FF090454FF400784FF48F
:1023800000694FF0200AB0F1A04F07D0DFF8A0B1EC
:1023900058455DD10A60012A2FD036E00A60012A33
:1023A00007D1586940F080505861586900F080505A
:1023B0000190CDF808C0CDF80CC0049602A92846BB
:1023C00000F004FE5C4D5B4828606E60AE60EF601C
:1023D000C5F81080C5F81490C5F818A0EE6128461D
:1023E00000F08AFC20B140F2151154A005F0C9FCA0
:1023F000E5636C6207B0BDE8F08F586940F080502B
:102400005861586900F080500190C0200290CDF8CA
:102410000CC0049602A9284600F0D8FD464D4B4852
:10242000443528606E60AE60EF60C5F81080C5F876
:102430001490C5F818A0EE61284600F05DFC20B1AC
:102440004FF49F713DA005F09CFCE5636C62D1E701
:102450003F4D404AA84231D14868401C486001289D
:1024600007D1586940F000505861586900F0005099
:10247000019042F202000290CDF80CC0049602A92D
:10248000104600F0A3FD31482B4D503088352860B0
:102490006E60AE60EF60C5F81080C5F81490C5F8A6
:1024A00018A0EE61284600F027FC20B140F2671129
:1024B00022A005F066FCE5636C629BE7264DA8420E
:1024C00098D14868401C4860012807D1586940F0FD
:1024D00000505861586900F0005001904FF4A0403E
:1024E0000290CDF80CC0049602A9104600F06EFDD3
:1024F0001648114D1430CC3528606E60AE60EF6028
:10250000C5F81080C5F81490C5F818A0EE612846EB
:1025100000F0F2FB20B14FF4C87108A005F031FCC7
:10252000E5636C6266E700000400002000100240D2
:1025300000010050080002400C0300202E2E2F53F3
:1025400072632F6164632E63000000000804024080
:102550000004005000040048000500502DE9F04739
:1025600004460D466169454B20684FF000084FF066
:10257000A042082905D0904201D0984203D1404999
:1025800002E008261CE03F498E68F6060CD08968F8
:1025900011F4404F13D0606C40F02000606484F868
:1025A00040800120BDE8F087C168C90707D0606C92
:1025B00040F02000606484F840800120F2E70C269F
:1025C000904201D0984204D1D2F8081301F01F01C3
:1025D00004E02C490831096801F01F0121B1904243
:1025E00002D02949884201D1C76803E0984200D04F
:1025F0000A46D76800F0C2FD814610E0681C0ED084
:102600002DB100F0BBFDA0EB0900A84207D9606C1A
:1026100040F00400606484F840800320C2E7206832
:1026200000683042EAD0606C40F40070606420685A
:10263000C16807F4005201F44061114319D10168E7
:10264000090716D5816849070BD4616C21F48071A4
:102650006164616CC9040CD4616C41F00101616476
:1026600007E0616C41F020016164A16C41F001015F
:10267000A164790400D40660002093E700010050B3
:102680000003005000070050000400502DE9F04105
:1026900004462068806840077AD494F840000128F6
:1026A0000CD0012084F840002046FDF7FDFE0146D5
:1026B0004FF0000C29B184F840C087E00220BDE84B
:1026C000F081606C40F60162904340F48070606479
:1026D00020684FF0A0463E4A3E4DB04201D09042A5
:1026E00004D1D6F8083303F01F0302E02B6803F08F
:1026F0001F03394F1BB1B04201D0B8420DD1636CFA
:1027000023F480136364C3689B011CD5636C23F4BA
:10271000005343F48053636415E0636C43F4801307
:102720006364904203D1F36803F0007304E02A4B22
:102730000C331B6803F000732BB1636C23F400535C
:1027400043F480536364636CDB0404D5A36C23F00F
:102750000603A36401E0C4F848C084F840C01C2309
:1027600003602068B04201D0904204D1D6F808330B
:1027700003F01F0302E02B6803F01F0303B3B04212
:1027800001D0904205D1D6F8083303F01F0303E0CF
:102790001BE02B6803F01F03052B11D0B04201D0C2
:1027A000904204D1D6F8082302F01F0202E02A6802
:1027B00002F01F02092A03D0B04201D0B84205D16D
:1027C000826842F00402826000E00221084676E757
:1027D00000010050080700500004005010B50446E6
:1027E00094F84000012808D0012084F840006C21B2
:1027F0002046FDF7B9FD10B10BE0022010BD2046C8
:10280000FDF718FE28B9616C21F4885141F00101EF
:102810006164002184F8401010BD000010B51C4A0E
:102820000168914202D14FF400111EE0184A121DB6
:10283000914201D1490418E0154A0832914201D170
:10284000C90612E0124A0C32914201D1C9060CE0CD
:102850000F4A1032914201D1490706E00C4A143266
:10286000914201D1012100E002210A4B0A4C8A0762
:1028700002D01A680A4001E022680A40002A06D005
:102880008A0701D0196000E0216000F097F810BDC0
:102890001C000140340401401404014038B50446D2
:1028A0000025002C03D094F82900C00601D501258D
:1028B0004BE02748816941F001018161806900F0A6
:1028C00001000090204600F045F894F829100020FF
:1028D00009B984F828006168206802680092009AAB
:1028E00022F070020A4300920099A26821F082014E
:1028F000114300910099A26921F4402111430091F4
:102900000099A28921F4705102F470521143009190
:102910000099226921F400411143009100996269F4
:1029200021F44031114300910099E26921F00C013A
:10293000114300910099226A21F400711143009122
:1029400000990160012084F82900284638BD000064
:102950000010024000B585B00068164B002103222C
:10296000984212D1082000900192029169464FF0DE
:10297000904000F02BFB00221146402000F054FD57
:10298000402000F045FD05B000BD0A4B08339842D9
:10299000F9D101200090019202916946064800F0A9
:1029A00015FB00221146412000F03EFD412000F0C1
:1029B0002FFDE8E7200001400004004804480068BB
:1029C000400204D501225103024800F0D0BB7047F9
:1029D000140401400008004830B51F23012505FA02
:1029E00003F40C4202D15B1E5C1CF8D18AB1082AA8
:1029F0000BD0102A05D0182A0BD1072B09D30120A0
:102A000030BD082B05D3012030BD102B01D3012090
:102A100030BD036859610068816821F018011143D5
:102A20008160002030BD000010B50446002C02D0AB
:102A3000607F10B106E0012010BD00202077204605
:102A400000F032F802206077207938B1D4E9021220
:102A50002046FFF7C1FF48B1012010BD2168114891
:102A600048612068816821F0180181606079A0B117
:102A700021682069086120688168626921F060012D
:102A80001143816020688168A26921F080011143AF
:102A9000816001206077002010BD21684FF0FF3079
:102AA0000861E8E7B71DC10408B500680649884217
:102AB00008D10648416941F040014161406900F098
:102AC0004000009008BD00000030024000100240AD
:102AD000704770B54379012B1AD001264671022345
:102AE000037103681D6840F6FE749440A543D1E964
:102AF00000410C4394402C431C6001680B68C024C7
:102B00009440A3430B60067100214171002070BD09
:102B1000022070BD704770B50446206801684FF010
:102B20000405890411D5416B89040ED525712169ED
:102B300041F001012161E90241632068016821F44B
:102B4000805101602046FFF7E5FF20680168890099
:102B500012D5416B89000FD52571216941F0020121
:102B600021614FF0005141632068016821F08051DC
:102B700001602046FFF7ACFF70BD70B50446002C25
:102B800003D02079002510B105E0012070BD6571EA
:102B9000204600F007F802202071256101202071F5
:102BA000002070BD00B587B00068104988421BD175
:102BB0000F48C16941F00051C161C06900F0005087
:102BC000019030200290032003900020049002A97D
:102BD0004FF0904000F0FAF900221146362000F044
:102BE00023FC362000F014FC07B000BD0074004048
:102BF0000010024010B5002490F82110022903D0E3
:102C000004218163012418E001680A6822F00E02A1
:102C10000A6001680A6822F001020A6090F8402008
:102C2000012303FA02F1C26B516080F821300021C8
:102C300080F82010416B01B18847204610BDF0B4E8
:102C4000C16B0A6801680B68046C042606FA04F577
:102C5000154213D05D0711D50A68920603D40A689D
:102C600022F004020A6090F8401006FA01F5C16BE8
:102C70004D60C16A00293DD0F0BC08474FF0020CFE
:102C80000CFA04F616424FF000074FF0010517D07A
:102C90009E0715D50A68920605D40A6822F00A0232
:102CA0000A6080F8215090F840100CFA01F6C16BD0
:102CB0004E6080F82070816A00291BD0F0BC084764
:102CC0000826A640164215D01A0713D50A6822F026
:102CD0000E020A6090F84010C26B05FA01F15160D3
:102CE000856380F8215080F82070016B002901D0A5
:102CF000F0BC0847F0BC704770B50446002C24D0E7
:102D0000022084F821002068026843F6F0718A43AB
:102D1000D4E901131943D4E903352B4319436369FB
:102D20001943A3691943E36919431143016020461C
:102D3000FDF70CFF00202034A060E060206160619E
:102D4000A06101216170207070BD012070BD31B59E
:102D500000F014FA044600F011FA0099001B8842B2
:102D6000F9D338BD2DE9F04705460F464FF0010A6B
:102D7000DFF88C8098F8180001280DD0012088F821
:102D8000180028681F4E4CF25039012807D04846D9
:102D9000FEF730F890B12EE00220BDE8F0874846FB
:102DA000FEF728F838BBFDF7D9FF4846FEF722F8B2
:102DB0008246306920F0040030611CE04FF0FF30A3
:102DC00038606C6811E02046FDF7DAFF4846FEF7F0
:102DD00011F88246306920F0020030615FEA0A0093
:102DE00001D03C6007E004F50064D5E9010100EB87
:102DF000C120A042E7D8002088F818005046CCE750
:102E000038090020002002400348016941F0800198
:102E10000161002070470000002002402DE9F05FB2
:102E20000746884615461E460024DFF8749099F838
:102E30001800012809D0012089F818004CF2503BF5
:102E40005846FDF7D7FF18B126E00220BDE8F09FF5
:102E5000012F05D0022F05D00427DFF848A019E084
:102E60000127FAE70227F8E7220128463146FDF755
:102E70001BFA81B208EB4400FDF794FF5846FDF7BA
:102E8000B9FFDAF8101021F00101CAF8101018B9D2
:102E9000641CE4B2BC42E7D3002189F81810D5E7DE
:102EA000380900200020024005480169090605D5BF
:102EB0000449416004494160002070470120704787
:102EC0000020024023016745AB89EFCD2DE9F04199
:102ED000324C334DB0F5806F30D0324F4FF0000898
:102EE0004FF40056B0F5006F46D0B0F5805F53D177
:102EF0000120E87103F02CFFA878401CA870207016
:102F0000424684F87C8069214D20FDF763FD2278DC
:102F100069211320FDF75EFD606806F08DFA41EC33
:102F2000100B662153EC102B2E20FDF753FD31467C
:102F30003846BDE8F041012200F019B9E8790028CF
:102F40002AD194F87D00002826D11748007800285F
:102F500022D016480078012806D048B102281BD19B
:102F6000BDE8F041FEF7AAB8BDE8F041FDF77CBE30
:102F7000BDE8F04103F00ABE03F0EAFEE87901285B
:102F80000AD100223146384600F0F1F80021084805
:102F900001F0F8FB85F80780BDE8F0814C080020BF
:102FA0006800002000080048600000203000002079
:102FB000CC07002010B504490A68024202D008601C
:102FC000FFF784FF10BD0000140401402DE9F84F05
:102FD0000022DFF87081DFF86CA14FF0010E4FF096
:102FE0000F0C08F104090AF10C0AA4E00EFA02F62B
:102FF0003340002B70D04C68022C01D0122C11D120
:10300000D40800EB84073D6A5407E40E0CFA04FB75
:1030100025EA0B05D1F810B00BFA04FB4BEA050BBF
:10302000C7F820B0076854000325A540AF4391F8C6
:1030300004B00BF0030B0BFA04FB4BEA070BC0F8D0
:1030400000B04F68012F05D0022F03D0112F01D0FF
:10305000122F11D18768AF43D1F80CB00BFA04FBE3
:103060004BEA070BC0F808B04768B7430E79C6F3C0
:10307000001696403E434660C668AE438D68A54044
:103080003543C5604C68E40054D52F4CA56945F024
:103090000105A561A46904F0010400942B4C22F001
:1030A00003052E19B7689407250F0CFA05F4A743FA
:1030B000B0F1904F04D0264CA04203D1012412E07D
:1030C000002410E0234CA04201D102240BE0224C4A
:1030D000A04202D1032406E02CE0204CA04201D102
:1030E000042400E00524AC403C43B460D8F8004020
:1030F0009C434D68ED0300D51C43C8F80040D9F847
:1031000000409C434D68AD0300D51C43C9F8004006
:103110000C4D08352C689C434E68F60200D51C43C4
:103120002C60DAF800409C434D68AD0200D51C438A
:10313000CAF80040521C0B6833FA02F47FF456AF11
:10314000BDE8F88F0004014000100240000001407B
:103150000004004800080048000C00480010004827
:103160000069084201D00120704700207047002A02
:1031700001D081617047816270470000014800689A
:1031800070470000B801002090F84120202A01D0AB
:103190000220704790F84020012A20D0012280F8B8
:1031A0004020242280F841200268136823F00103A4
:1031B00013600268136823F4805313600268136875
:1031C0000B43136001680A6842F001020A60202183
:1031D00080F84110002180F8401000207047022044
:1031E000704790F84120202A01D00220704790F8C3
:1031F0004020012A1ED0012280F84020242280F89D
:1032000041200268136823F0010313600268136809
:1032100023F4706343EA0121116001680A6842F0F7
:1032200001020A60202180F84110002180F840103E
:10323000002070470220704770B50446002C04D06F
:1032400094F84100002510B106E0012070BD84F81B
:103250004050204600F050F8242084F841002068B7
:10326000016821F0010101606068216820F0706050
:1032700008612068816821F400418160E0680128CC
:1032800008D0A068216840F404408860E068022803
:1032900006D009E0A068216840F400408860F5E7A6
:1032A00021684FF40060486020684168114A11436A
:1032B00041602068C16821F40041C160D4E9040183
:1032C0000843A16940EA01202168C860D4E90701E8
:1032D0000843216808602068016841F0010101602D
:1032E0006564202084F84100256384F84250002062
:1032F00070BD00000080000200B587B000680E4974
:10330000884217D14FF440700290122003900120A0
:103310000490032005900420069002A90748FFF7B7
:1033200055FE0748C16941F40011C161C06900F44C
:103330000010019007B000BD005400400004004898
:103340000010024002480168491C016070470000FB
:10335000B801002010B50748016841F01001016074
:10336000032000F081F8002000F006F800F018F8C3
:10337000002010BD0020024010B5044607484FF45D
:103380007A720068B0FBF2F000F0EFFD00222146F7
:10339000501E00F049F8002010BD00000000002081
:1033A00008B51A48816941F001018161806900F026
:1033B00001000090032000F057F8002211466FF042
:1033C0000B0000F031F8002211466FF00A0000F007
:1033D0002BF8002211466FF0090000F025F80022BA
:1033E0001146501F00F020F800221146101F00F077
:1033F0001BF800221146901E00F016F80022BDE8CE
:1034000008401146501E00F00FB8000000100240A6
:1034100000F01F02012191404009800000F1E020EE
:10342000C0F8001170470000F0B40D460D4B1B684A
:10343000C3F30223C3F10704042C00D90424191D8B
:10344000072901D2002300E0DB1E012606FA04F161
:10345000491E294099409E40761E16403143F0BCDB
:1034600002F080BD0CED00E000F00701054A106895
:103470004FF6FF03184040EA01200349084310605B
:10348000704700000CED00E00000FA052DE9F84F50
:103490000446814D2068C00370D50026E869C0004D
:1034A00008D4E86940F08050E861E86900F0805095
:1034B00000900126794F3868C00513D4386840F46D
:1034C00080703860FFF75AFE804608E0FFF756FE2E
:1034D000A0EB0800642802D90320BDE8F88F386803
:1034E000C005F3D5286A00F4407078B3A18801F4D0
:1034F000407181424DD0286A20F440704FF48031F1
:1035000091FAA1F2B2FA82F29300654A4FF00108F3
:103510001344C3F8008491FAA1F1B1FA81F102EBEE
:1035200081010023C1F800342862C00731D0FFF7C1
:1035300025FE074641F2883A4FF0020907E0FFF7FF
:103540001DFEC01B504502D90320C6E721E099FAB1
:10355000A9F0B0FA80F040F040004146B8EB501FAF
:1035600001D128680CE099FAA9F0B0FA80F040F097
:103570004000B9EB501F02D1286A01E015E0686AEB
:1035800099FAA9F2B2FA82F202F01F0291400842BF
:10359000D5D0286A616820F4407008432862012E63
:1035A00003D1E86920F08050E8612078C00705D099
:1035B000286BA16820F00300084328632078800767
:1035C00005D5286BE16820F4403008432863207853
:1035D000400705D5286B216920F440200843286363
:1035E0002078800605D5286BE16920F0100008439B
:1035F00028632068800305D56868A16B20F48000EB
:10360000084368602078400605D5286B216A20F0C1
:103610002000084328632078000705D5286B6169DE
:1036200020F44010084328632078C00605D5286B95
:10363000A16920F44000084328632088800505D54F
:103640006868E16A20F4000008436860207800069A
:1036500005D5E86A616A20F4F8700843E8622088BA
:10366000C00505D5E86AA16A20F478500843E862ED
:103670002088C00405D5286B216B20F48070084396
:1036800028632088800405D5286B616B20F40070C6
:1036900008432863002020E700100240007000402B
:1036A000000042422DE9F04704460E46DFF8C4818F
:1036B000D8F8000000F00700B0420FD2D8F80000A0
:1036C00020F007003043C8F80000D8F8000000F0F0
:1036D0000700B04202D00120BDE8F0872078664F95
:1036E000800705D57868A16820F0F000084378606D
:1036F0002078C00768D06068012201280CD0022819
:1037000022D0022393FAA3F1B1FA81F141F0200112
:10371000490931D0396830E04FF4003393FAA3F10E
:10372000B1FA81F141F02001490901D0396800E086
:10373000796A93FAA3F3B3FA83F303F01F039A4071
:10374000114225D10120C7E74FF0007393FAA3F18E
:10375000B1FA81F141F02001490901D0396800E056
:10376000796A93FAA3F3B3FA83F303F01F039A4041
:1037700011420DD10120AFE7796A93FAA3F3B3FAAE
:1037800083F303F01F039A40114201D10120A3E704
:10379000796821F0030101437960FFF7EFFC0546EA
:1037A000606841F28839012809D0022814D020E04D
:1037B000FFF7E4FC401B484501D903208CE77868FB
:1037C000C0F381000128F3D117E0FFF7D7FC401BBD
:1037D000484501D903207FE77868C0F381000228BB
:1037E000F3D10AE0FFF7CAFC401B484501D903208A
:1037F00072E7786810F00C0FF4D1D8F8000000F0F0
:103800000700B0420ED9D8F8000020F0070030437E
:10381000C8F80000D8F8000000F00700B04201D05E
:10382000012059E72078400705D57868E16820F441
:10383000E060084378602078000706D57868216941
:1038400020F4605040EAC100786000F04DF87968DB
:10385000F02292FAA2F201F0F001B2FA82F2D14023
:10386000064A515CC840064908600020FFF784FD05
:10387000002031E700200240001002402E95000891
:103880000000002001480068704700000000002090
:1038900000B5FFF7F7FF074949684FF4E06292FA75
:1038A000A2F201F4E061B2FA82F2D140024A515C24
:1038B000C84000BD001002403E95000800B5FFF76B
:1038C000E1FF074949684FF4605292FAA2F201F40D
:1038D0006051B2FA82F2D140024A515CC84000BD48
:1038E000001002403E95000810B5154B5968154868
:1038F00001F00C02042A02D0082A01D0401010BDA9
:103900004FF4701494FAA4F401F47012B4FA84F42D
:10391000E2400D4CA25CDB6A0F2494FAA4F403F09D
:103920000F03B4FA84F4E340074C1034E35CC9039A
:1039300003D5B0FBF3F0504310BD0448504310BD15
:10394000001002400024F4004695000800093D00E4
:103950002DE9F84F0446FC4E20784FF00105C007D2
:103960005BD070684FF40038C0F38100012807D0A5
:103970007068C0F3810002281CD17068C00319D59B
:1039800098FAA8F0B0FA80F040F02000400901D089
:10399000306800E0706A98FAA8F1B1FA81F101F09C
:1039A0001F0105FA01F1084276D06068A8BB01202A
:1039B000BDE8F88F6068B0F5803F17D0D8B1B0F59A
:1039C000A02F21D0306820F480303060306820F49F
:1039D00080203060F06AA16820F00F000843F06298
:1039E0006068C0B3FFF7CAFB07461EE0306840F4CA
:1039F00080303060EEE7306820F48030306030682E
:103A000020F480203060E5E7306840F480203060AA
:103A1000306840F480303060DCE73DE0FFF7AEFB1B
:103A2000C01B642801D90320C2E798FAA8F0B0FAB5
:103A300080F040F02000400901D0306800E0706A5A
:103A400098FAA8F1B1FA81F101F01F0105FA01F12C
:103A50000842E3D020E0FFE7FFF790FB074606E0CF
:103A6000FFF78CFBC01B642801D90320A0E798FA5C
:103A7000A8F0B0FA80F040F02000400901D0306892
:103A800000E0706A98FAA8F1B1FA81F101F01F0123
:103A900005FA01F10842E3D12078DFF8B08280070F
:103AA0004FF0000B4FF0020732D570684FF0F80A64
:103AB00010F00C0F07D07068C0F38100022828D1E5
:103AC0007068C00325D497FAA7F0B0FA80F040F0F0
:103AD0002000400901D0306800E0706A97FAA7F131
:103AE000B1FA81F101F01F0105FA01F1084204D099
:103AF0002069012801D001205AE730689AFAAAF219
:103B00006169B2FA82F220F0F80091400843306017
:103B10005CE0206990B395FAA5F0B0FA80F048F81F
:103B20002050FFF72BFB814607E0FFF727FBA0EBB8
:103B30000900022801D903203AE797FAA7F0B0FA62
:103B400080F040F02000400901D0306800E0706A49
:103B500097FAA7F1B1FA81F101F01F0105FA01F11D
:103B60000842E2D030689AFAAAF220F0F8016069BF
:103B7000B2FA82F290400143316027E0FFE795FA04
:103B8000A5F0B0FA80F048F820B0FFF7F7FA8146C8
:103B900007E0FFF7F3FAA0EB0900022801D90320A0
:103BA00006E797FAA7F0B0FA80F040F0200040094D
:103BB00001D0306800E0706A97FAA7F1B1FA81F19C
:103BC00001F01F0105FA01F10842E2D12078000757
:103BD0006DD5A069A8B395FAA5F0B0FA80F008EB0E
:103BE0008000C0F88054FFF7C9FA814607E0FFF76C
:103BF000C5FAA0EB0900022801D90320D8E697FAFC
:103C0000A7F0B0FA80F040F06000B5EB501F01D192
:103C100030680BE097FAA7F0B0FA80F040F060004F
:103C2000B7EB501F01D1306A00E0706A97FAA7F134
:103C3000B1FA81F101F01F0205FA02F10842D6D073
:103C400035E0FFE795FAA5F0B0FA80F008EB8000C8
:103C5000C0F880B4FFF792FA814607E0FFF78EFACA
:103C6000A0EB0900022801D90320A1E697FAA7F0EA
:103C7000B0FA80F040F06000B5EB501F01D1306821
:103C80000BE097FAA7F0B0FA80F040F06000B7EBD5
:103C9000501F01D1306A00E0706A97FAA7F1B1FABB
:103CA00081F101F01F0205FA02F10842D6D1207815
:103CB00040076ED54FF00009F069C00009D4F069E3
:103CC00040F08050F061F06900F0805000904FF0BB
:103CD00001091F480168C90513D4016841F48071C6
:103CE0000160FFF74BFA824607E0FFF747FAA0EBC7
:103CF0000A00642801D903205AE615480068C00567
:103D0000F3D5E068012810D0A0B1052822D0306A90
:103D100020F001003062306A20F004003062E06878
:103D2000B0B3FFF72BFA824627E0306A40F001007B
:103D30003062F4E7306A20F001003062306A20F02F
:103D400004003062EBE70000001002400000424235
:103D500000700040306A40F004003062306A40F089
:103D600001003062DBE7FFF709FAA0EB0A0141F23C
:103D70008830814201D903201AE697FAA7F0B0FAF9
:103D800080F040F04000B5EB501F03D130680DE0EB
:103D900017E04CE097FAA7F0B0FA80F040F040004E
:103DA000B7EB501F01D1306A00E0706A97FAA7F1B3
:103DB000B1FA81F101F01F0105FA01F21042D2D0EF
:103DC0002EE0FFF7DBF9824609E0FFF7D7F9A0EB19
:103DD0000A0141F28830814201D90320E8E597FACF
:103DE000A7F0B0FA80F040F04000B5EB501F01D1D1
:103DF00030680BE097FAA7F0B0FA80F040F040008E
:103E0000B7EB501F01D1306A00E0706A97FAA7F152
:103E1000B1FA81F101F01F0105FA01F21042D4D18B
:103E2000B9F1010F03D1F06920F08050F061E06931
:103E300080B37168C1F38101022977D04FF0807996
:103E40004FF00077022809D099FAA9F0B0FA80F073
:103E500048F820B0FFF792F904465DE099FAA9F01E
:103E6000B0FA80F048F820B0FFF788F9824607E002
:103E7000FFF784F9A0EB0A00022801D9032097E597
:103E800097FAA7F0B0FA80F040F02000400902D085
:103E9000306801E056E0706A97FAA7F1B1FA81F153
:103EA00001F01F0105FA01F10842E1D1D4E908103F
:103EB0000843716821F474110843706099FAA9F0FD
:103EC000B0FA80F048F82050FFF758F9044606E0B1
:103ED000FFF754F9001B022801D9032068E597FA7F
:103EE000A7F0B0FA80F040F02000400901D031681E
:103EF00000E0716A97FAA7F0B0FA80F000F01F00B6
:103F000005FA00F00142E3D01CE0FFF737F9001B8F
:103F1000022801D903204BE597FAA7F0B0FA80F008
:103F200040F02000400902D0316801E00CE0716AE5
:103F300097FAA7F0B0FA80F000F01F0005FA00F041
:103F40000142E2D1002033E5012031E54FF0E021CC
:103F5000042804D0086920F004000861704708694B
:103F600040F0040008617047704710B5401EB0F182
:103F7000807F01D3012010BD4FF0E02460610F214C
:103F8000601701F0EFFF0020A061072020610020F2
:103F900010BD10B5FFF7E8FF10BD70477047000077
:103FA00030B590F83C20012A3DD0012280F83C2019
:103FB000CA6800248B6822F440721A434B6822F4CA
:103FC00080621A430B6822F400621A430B6922F4E0
:103FD00080521A434B6922F400521A4322F4804360
:103FE0008A6A134323F40043134323F470220B8B98
:103FF00042EA03420D4D0368AB4202D00C4DAB4286
:104000000CD18D8C22F4700242EA0552CD6922F067
:1040100080722A43096A22F000720A435A6480F8C7
:104020003C40002030BD022030BD0000002C01408B
:104030000034014030B590F83C20012A1FD0012205
:1040400080F83C2003685A689D680E4CA34202D059
:104050000D4CA34203D122F470044A68224322F09B
:1040600070040A68224325F08004896821435A605D
:1040700002689160002180F83C10002030BD0220D1
:1040800030BD0000002C01400034014010B5044652
:10409000002C03D094F83D0010B107E0012010BDC2
:1040A000002084F83C00204600F00CF8022084F840
:1040B0003D00211D206803F08BF8012084F83D00AD
:1040C000002010BD00B587B00068444A44499042C2
:1040D00019D1886940F400608861886900F4006043
:1040E0000190002211461920FFF79EF91920FFF7D1
:1040F0008FF9002211461B20FFF796F91B20FFF7CE
:1041000087F907B000BDB0F1804F13D0354A904217
:1041100030D1C86940F01000C861C86900F01000D3
:104120000190002211463620FFF77EF93620FFF776
:104130006FF9E6E7C86940F00100C861C86900F09E
:10414000010001904FF400400290022003900020F3
:10415000049005900120069002A94FF09040FEF7D0
:1041600035FF002211461C20FFF75EF91C20FFF7E7
:104170004FF9C6E71C4A904210D1C86940F02000B0
:10418000C861C86900F02000019000221146372064
:10419000FFF74AF93720FFF73BF9B2E7134A90429D
:1041A00008D1886940F480308861886900F48030E3
:1041B0000190A6E70E4A9042A3D1886940F40030EE
:1041C0008861886900F400300190002211461920AE
:1041D000FFF72AF91920FFF71BF992E7002C01409D
:1041E0000010024000100040001400400040014058
:1041F000004401400168CA6842F00102CA600068D8
:10420000016841F001010160002070470168CA683F
:1042100022F00102CA600068016A41F211121142E3
:1042200007D1016A9210114203D1016821F0010106
:10423000016000207047000070B5044694F83C000F
:10424000012817D0012584F83C50022084F83D0055
:10425000206882683C4E324022F47F4282600868C7
:1042600050283AD00DDC20285FD005DCA0B3102800
:1042700064D155E0022070BD30285BD040285DD16C
:104280003FE0602833D070280DD0B0F5805F03D0B8
:10429000B0F5005F52D113E0206881682A4A70327D
:1042A000114081604AE0CB68D1E90121206802F029
:1042B000F2FF20688168314041F0770181603DE084
:1042C000CB68D1E90121206802F0E5FF2068816810
:1042D00041F48041816031E01DE0CA68496820688E
:1042E00003F07AF95021206802F0DFFF26E0CA6867
:1042F0004968206803F0B8F96021206802F0D5FF12
:104300001CE0CA684968206803F066F9402120680B
:1043100002F0CBFF12E00021206802F0C6FF0DE0A2
:104320001021206802F0C1FF08E02021206802F07F
:10433000BCFF03E03021206802F0B7FF3C34657019
:104340000020207070BD000088FFFEFF704770B530
:1043500004460D4694F83C00012820D0012684F83C
:104360003C60022084F83D00DAB1042A2AD0082AF1
:104370003AD0D5E90012EB68206803F0BBF9206859
:10438000C16921F44061C1612068C169AA6841EA3C
:104390000221C1613C3466700020207070BD022093
:1043A00070BDD5E90012EB68206803F027F920689A
:1043B000816921F00C01816120688169AA6811433B
:1043C0008161E7E7D5E90012EB68206803F05EF948
:1043D0002068816921F44061816120688169AA684F
:1043E00041EA02218161D5E7D5E90012EB68206836
:1043F00003F067F92068C16921F00C01C1612068F0
:10440000C169AA681143C161C4E710B50446002C14
:1044100003D094F83D0010B107E0012010BD00204A
:1044200084F83C00204600F00CF8022084F83D009F
:10443000211D206802F0CCFE012084F83D00002000
:1044400010BD704710B504460029226806D0042923
:1044500009D008290CD00C2913D10EE0D06840F007
:104460000200D0600DE0D06840F00400D06008E0A9
:10447000D06840F00800D06003E0D06840F0100041
:10448000D0600122206802F0FBFE2068016841F044
:1044900001010160002010BD10B50446002922680A
:1044A00006D0042909D008290CD00C2913D10EE01C
:1044B000D06820F00200D0600DE0D06820F0040049
:1044C000D06008E0D06820F00800D06003E0D06839
:1044D00020F01000D0600022206802F0D1FE206899
:1044E000016A41F21112114207D1016A9210114280
:1044F00003D1016821F001010160002010BD70B5F9
:104500000446206801694FF00005C943890716D4A5
:10451000C168C943890712D4E91E016101202077CF
:1045200020688069800703D02046FFF70FFF05E071
:10453000204600F009F9204600F0D0FA25772068DF
:104540000169C943490718D4C168C943490714D44C
:104550006FF004010161022020772068806910F467
:10456000407F03D02046FFF7F1FE05E0204600F033
:10457000EBF8204600F0B2FA257720680169C943BC
:10458000090717D4C168C943090713D46FF008019C
:104590000161042020772068C069800703D020468D
:1045A000FFF7D4FE05E0204600F0CEF8204600F0EC
:1045B00095FA257720680169C943C90618D4C168EE
:1045C000C943C90614D46FF0100101610820207797
:1045D0002068C06910F4407F03D02046FFF7B6FE84
:1045E00005E0204600F0B0F8204600F077FA257785
:1045F00020680169C943C90708D1C168C943C9070F
:1046000004D1891E0161204600F074FB2068016915
:10461000C943090609D4C168C943090605D46FF026
:10462000800101612046FFF7B8FC20680169C94399
:10463000490609D4C168C943490605D46FF0400151
:104640000161204600F079FB20680169C9438906B1
:104650000BD4C168C943890607D46FF020010161FA
:104660002046BDE87040FFF799BC70BD70B586B0BC
:10467000174A0168002402254FF09040914218D15A
:104680004FF4E06101910295039404940621059191
:1046900001A90646FEF79AFCA9020191029503942E
:1046A00004940B21059101A93046FEF78FFC06B05A
:1046B00070BD084A9142FAD10421019102950394F8
:1046C00004940921059101A9FEF780FCEFE70000A1
:1046D000002C01400040014070B5044694F83C00B5
:1046E00001280ED0012584F83C50022084F83D00BA
:1046F0000C2A19D007DC5AB1042A0DD0082A1ED181
:104700000EE0022070BD102A12D0142A17D113E037
:10471000206802F0D3FD12E0206802F01FFE0EE0D8
:10472000206802F065FE0AE0206802F0ABFE06E0B9
:10473000206802F0E1FE02E0206802F015FF3C3440
:1047400065700020207070BD704710B50446002CC5
:1047500003D094F83D0010B107E0012010BD002007
:1047600084F83C00204600F00CF8022084F83D005C
:10477000211D206802F02CFD012084F83D0000205E
:1047800010BD704710B504460122206802F078FD84
:104790000D48216881420BD00C48814208D00C485A
:1047A000814205D00B48814202D00B48814203D19F
:1047B000486C40F4004048642068016841F0010101
:1047C0000160002010BD0000002C014000340140B9
:1047D00000400140004401400048014010B504463B
:1047E0000029226806D0042909D008290CD00C29F8
:1047F00013D10EE0D06840F00200D0600DE0D06828
:1048000040F00400D06008E0D06840F00800D060BC
:1048100003E0D06840F01000D0600122206802F070
:104820002FFD0D48216881420BD00C48814208D0F1
:104830000B48814205D00B48814202D00A48814290
:1048400003D1486C40F4004048642068016841F09E
:1048500001010160002010BD002C01400034014026
:1048600000400140004401400048014010B50446AA
:104870000029226806D0042909D008290CD00C2967
:1048800013D10EE0D06820F00200D0600DE0D068B7
:1048900020F00400D06008E0D06820F00800D0606C
:1048A00003E0D06820F01000D0600022206802F001
:1048B000E7FC154841F211122168931081420BD098
:1048C0001248814208D01248814205D011488142E5
:1048D00002D01148814209D1086A104206D1086A03
:1048E000184203D1486C20F4004048642068016AF3
:1048F000114206D1016A194203D1016821F0010178
:104900000160002010BD0000002C01400034014077
:1049100000400140004401400048014070B5044699
:104920000D46002C03D094F83D0010B107E00120A3
:1049300070BD002084F83C00204600F015F80220ED
:1049400084F83D00211D206802F042FC20680168C7
:1049500021F00801016020680168294301600120FD
:1049600084F83D00002070BD704770B504460D46C8
:1049700094F83C0001280ED0012684F83C60022007
:1049800084F83D000C2A4AD007DC5AB1042A1DD015
:10499000082A1AD12FE0022070BD102A54D0142A00
:1049A0007AD165E02946206802F088FC2068816998
:1049B00041F0080181612068816921F00401816171
:1049C000206881692A691143816165E02946206870
:1049D00002F0C4FC2068816941F4006181612068B3
:1049E000816921F480618161206881692A6941EAD5
:1049F0000221816150E02946206802F0F9FC20681C
:104A0000C16941F00801C1612068C16921F0040158
:104A1000C1612068C1692A691143C1613CE029462E
:104A2000206802F02FFD2068C16941F40061C16176
:104A30002068C16921F48061C1612068C1692A6967
:104A400041EA0221C16127E02946206802F054FDB5
:104A50002068416D41F0080141652068416D21F0F9
:104A6000040141652068416D2A691143416513E0E5
:104A70002946206802F078FD2068416D41F400610C
:104A800041652068416D21F4806141652068416D78
:104A90002A6941EA022141653C3466700020207099
:104AA00070BD10B50446002C03D094F83D0010B141
:104AB00007E0012010BD002084F83C00204600F0F3
:104AC0000CF8022084F83D00211D206802F080FBD4
:104AD000012084F83D00002010BD704770470000A1
:104AE00010B504460122206802F0CAFB0D48216877
:104AF00081420BD00C48814208D00C48814205D03D
:104B00000B48814202D00B48814203D1486C40F4EB
:104B1000004048642068016841F001010160002004
:104B200010BD0000002C0140003401400040014055
:104B3000004401400048014010B5044600292268A5
:104B400006D0042909D008290CD00C2913D10EE075
:104B5000D06840F00200D0600DE0D06840F0040062
:104B6000D06008E0D06840F00800D06003E0D06872
:104B700040F01000D0600122206802F081FB0D4857
:104B8000216881420BD00C48814208D00B488142F9
:104B900005D00B48814202D00A48814203D1486CBB
:104BA00040F4004048642068016841F00101016060
:104BB000002010BD002C01400034014000400140A5
:104BC000004401400048014010B50446002220681E
:104BD00002F056FB164841F2111321689A108142E7
:104BE0000BD01448814208D01348814205D01348A5
:104BF000814202D01248814209D1086A184206D186
:104C0000086A104203D1486C20F4004048642068D0
:104C1000016A194206D1016A114203D1016821F0EB
:104C200001010160012084F83D00002010BD00005A
:104C3000002C01400034014000400140004401408C
:104C40000048014010B504460029226806D0042916
:104C500009D008290CD00C2913D10EE0D06820F01F
:104C60000200D0600DE0D06820F00400D06008E0C1
:104C7000D06820F00800D06003E0D06820F0100079
:104C8000D0600022206802F0FBFA154841F21112B0
:104C90002168931081420BD01248814208D01248FB
:104CA000814205D01148814202D01148814209D188
:104CB000086A104206D1086A184203D1486C20F4F1
:104CC000004048642068016A114206D1016A194215
:104CD00003D1016821F001010160002010BD000036
:104CE000002C0140003401400040014000440140DC
:104CF000004801407047002290F83C30012B0AD058
:104D0000012380F83C3041B1042909D008290AD098
:104D10000C290DD10AE00220704701684A6B07E0B8
:104D200001688A6B04E00168CA6B01E001680A6CE3
:104D3000002180F83C10104670477047704770475C
:104D400070B504462368D869196800F00F05002D76
:104D500008D1820606D58A0604D52046BDE87040F3
:104D600002F031BE9A68002D6AD002F0010501F40C
:104D700090762E4364D0C60707D0CE0505D5012610
:104D80001E62E36E43F00103E366830708D5D30791
:104D900006D0266802233362E36E43F00403E36621
:104DA000430708D5D20706D0236804221A62E26EB0
:104DB00042F00202E26602070AD501F020022A430D
:104DC00006D0236808221A62E26E42F00802E26608
:104DD000E26E002A29D0800604D5880602D5204636
:104DE00002F0F1FDE06E000703D420688068400601
:104DF00020D5204602F0CCFD20688168490615D5F3
:104E0000816821F040018160606E58B11E494163A4
:104E1000606EFDF7EFFE002807D0606E416BBDE8C5
:104E2000704008472046FFF78AFF70BD2046FFF715
:104E300086FF70BD2046FFF782FF0020E06670BD50
:104E4000C5020ED552020CD54FF4801018622020F6
:104E500084F8690084F86A002046BDE87040FFF7D6
:104E60006DBF020606D50A0604D52046BDE870408F
:104E700002F01CBF4006E2D54806E0D52046BDE85A
:104E8000704002F093BD00007D79000810B5044623
:104E9000002C03D094F8690010B107E0012010BD88
:104EA000002084F86800204600F028F8242084F8C8
:104EB00069002068016821F001010160204602F0CC
:104EC000BFFD012818D0606A10B1204602F0C4FC72
:104ED0002068416821F4904141602068816821F098
:104EE0002A0181602068016841F0010101602046CB
:104EF000BDE8104002F014BD012010BDF0B587B030
:104F000004462949206888424BD12848816941F4E8
:104F100080418161806900F480400190C02002904E
:104F200002200390012004900320059007200690A2
:104F300002A91F48FEF74AF81F4D1E4828600026A8
:104F40006E60AE608027EF602E616E61AE61EE61D3
:104F50002846FDF7D1FE18B16F2118A002F011FF0D
:104F600065666C621348144D14384435286010206F
:104F70006860AE60EF602E616E61AE61EE612846E2
:104F8000FDF7BAFE18B17F210CA002F0FAFE2566EB
:104F90006C62002211462520FEF746FA2520FEF716
:104FA00037FA07B0F0BD00000038014000100240A1
:104FB00000040048580002408C0500202E2E2F537C
:104FC00072632F75736172742E63000090F86A30FB
:104FD000202B01D00220704799B192B190F868302F
:104FE000012B10D0012380F868304165A0F85820CB
:104FF000A0F85A208168FF22B1F5805F05D071B119
:1050000012E00120704702207047016911B1A0F839
:105010005C2009E040F2FF11A0F85C1004E0016997
:10502000A9B17F21A0F85C100021C166222280F87E
:105030006A2080F8681001688A6842F001028A607C
:105040000068016841F49071016000207047A0F889
:105050005C20E9E72DE9F05FFC4D05F5A471A87B24
:1050600091F90020002833D0FD48DFF8F8C34F68DD
:10507000DFF8DC83DFF8DC93DFF8DCA39FEDF70AD1
:1050800090F87DB09CF8006000F18804A1F1C8039D
:10509000B2EE041AF8B21C2A7ED02CDCDFF8C8E38A
:1050A000A2F10A02BEF804109EED010A89B2DFEDFA
:1050B000EB0A122A60EE200A47D2DFE802F04447EA
:1050C0004B4F595D707477797B80858A8F94B5BA20
:1050D0000120A873582A06D0BDE8F05F0422091DFC
:1050E000E248FFF773BFBDE8F05FDD493C2288313D
:1050F000DE48FFF76BBFDA49BC31252A0F78097902
:1051000070D009DCA2F11D02082AD5D2DFE802F036
:1051100099A6A9ACB0B3D5E0D14E88362A2A96F824
:105120002E606FD008DC262A6DD0272A6CD0282A62
:105130006BD0292A09D1E0E02B2A67D02C2A6FD026
:10514000582AF7D117E127605F6075E1A180C8F8A0
:10515000001071E1E180C9F800106DE1218100EEDD
:10516000101AB8EE400AC0EE010ACAED000A63E167
:10517000A072BF4908605FE178B2E07203F0CBFE35
:1051800041EC100B02F011FE51EC100B03F01CFC73
:1051900003F064FEB74900E050E008604CE1A181F3
:1051A000B548016048E1E181E96745E1207443E1E8
:1051B000607441E184ED050AC3ED060A3CE184ED2B
:1051C000060AC3ED070A37E184ED070AC3ED080AB2
:1051D00032E184ED080AC3ED090A2DE184F82400C8
:1051E000A87229E177E084F82500012802D1BBF1FB
:1051F000000F01D0A8B11FE1012E08D056B1022E38
:105200000BD019E182E069E06BE06DE087E0FBF72D
:105210002BFD11E101F0BAFC0EE1FBF74FFF0BE1B2
:1052200086E001F095FD07E184F826008CF8000087
:1052300002E184F8270091490870FDE084F8280015
:10524000FAE084F82900012804D1BBF1000F01D154
:10525000FBF79EFC002084F82900EDE084F82A008A
:10526000EAE084F82B00E7E084F82C002872E3E001
:1052700084F82D00E0E004F82E0F024601233846A2
:10528000FBF7ECFA85ED1B0A2278A17AE07902237C
:10529000FBF7E4FA85ED1C0A2278A17A207A032331
:1052A000FBF7DCFA85ED1D0A2278A17A607A0423E7
:1052B000FBF7D4FA85ED1E0ABEE084F82F00E872F1
:1052C000BBF1000F03D1012E01D1FBF7C3FCB3E00A
:1052D00084F83000B0E084F83100ADE084F83200AA
:1052E000AAE084F83300A7E084F8340001233246B2
:1052F000FBF7B4FA85ED1B0A9EE084F83500022323
:105300003246FBF7ABFA85ED1C0A95E084F83600CF
:1053100003233246FBF7A2FA85ED1D0A8CE084F8E0
:10532000370004233246FBF799FA85ED1E0A83E025
:105330002E34A0720146012332463846FBF78EFA1E
:1053400085ED1B0A2278A17AE0790223FBF786FA21
:1053500085ED1C0A2278A17A207A0323FBF77EFAD6
:1053600085ED1D0A2278A17A607A0423FBF776FA8C
:1053700085ED1E0A60E0A088C8F80000E088C9F842
:105380000000208900EE900AF8EE600AC0EE811A53
:10539000CAED001A3648A27A026094F90B00424224
:1053A000344802603448A2891C34026034F80E0C80
:1053B000E86754ED020A60EE800AC3ED060A54ED78
:1053C000010A60EE800AC3ED070AD4ED000A60EE20
:1053D000800AC3ED080AD4ED010A20EE800A83EDAD
:1053E000090A207AA872A07A8CF800002348E27A91
:1053F0000270207C2872012332463846FBF72EFAD1
:1054000085ED1B0AA27C217F607E0223FBF726FA32
:1054100085ED1C0AA27C217FA07E0323FBF71EFAE8
:1054200085ED1D0AA27C217FE07E0423FBF716FA9E
:1054300085ED1E0A01F092F80020A873BDE8F05F28
:10544000012209490948FFF7C1BD0000680000209A
:1054500024000020280000202C000020BD378635C5
:105460004C08002030000020B00100201C05002066
:10547000100000201400002018000020340000203C
:105480002DE9F84304460D4691461E4694F86900FE
:10549000202802D00220BDE8F883B5B1B9F1000F91
:1054A00013D094F86800012811D0012084F8680016
:1054B0000027E766212084F86900FDF75FFE80463B
:1054C000A4F85090A4F852901CE00120E3E70220D9
:1054D000E1E7B4F85200401EA4F85200434600220F
:1054E00080212046009602F013FC08B10320D2E789
:1054F000A068B0F5805F01D1206988B1216815F8F6
:10550000010B0885B4F852000028E2D1434600227E
:1055100040212046009602F0FBFB40B10320BAE791
:1055200035F8020B2168C0F308000885EAE720205F
:105530006834607027700020ADE790F86930202B48
:1055400001D002207047A9B1A2B190F86830012BB8
:1055500012D040F84C1F8280C280002101622122BB
:105560004277017750F84C0C016841F080010160EE
:105570000020704701207047022070477047FEE707
:1055800030B589B01C484FF0A04101604FF4803124
:105590004160002484600461C461446204630125A5
:1055A000C562C4600562456304214161846184630E
:1055B000FCF7A6FD18B1532110A002F0E2FB0694FF
:1055C00006A90D48FCF74CFB18B15B210BA002F0BB
:1055D000D8FB00950195039407200290049405944C
:1055E00069460548FCF7C8FB002803D0682103A0E2
:1055F00002F0C7FB09B030BDBC0100202E2E2F5396
:1056000072632F6164632E630000000030B587B0C1
:105610001848174901600902416000248460046150
:10562000C461446204630125C562C46005624563C8
:105630000421416184618463FCF762FD18B1832118
:105640000DA002F09EFB0320019002950494072018
:1056500003900594069401A90648FCF78DFB0028E9
:1056600003D0902104A002F08CFB07B030BD0000F5
:1056700000010050100200202E2E2F5372632F6164
:1056800064632E630000000030B589B01C481B49DC
:10569000016089014160002484600461C461446246
:1056A00004630125C562C46005624563042141614C
:1056B00084618463FCF724FD18B1AC2111A002F0D1
:1056C00060FB069406A90E48FCF7CAFA18B1B4218B
:1056D0000CA002F056FB0095019503940720029060
:1056E0000494059469460648FCF746FB002803D05D
:1056F000C12104A002F045FB09B030BD00040050F8
:10570000640200202E2E2F5372632F6164632E6378
:105710000000000030B587B01848174901604FF409
:1057200080314160002484600461C4614462046388
:105730000125C562C460056245630421416184613D
:105740008463FCF7DDFC18B1DC210DA002F019FB2D
:105750000320019002950494072003900594069479
:1057600001A90648FCF708FB002803D0E92104A0A2
:1057700002F007FB07B030BD00050050B802002062
:105780002E2E2F5372632F6164632E63000000007E
:1057900010B510480E4901604021416080218160B0
:1057A00040F27F41C160002101614FF4403242610B
:1057B0008161C161016201214162FDF76FF800283A
:1057C00005D0BDE81040442103A002F0DABA10BDB4
:1057D00020000140140600202E2E2F5372632F63E9
:1057E0006F6D702E6300000010B510480E49016007
:1057F000502141600021816040F27F42C26001611E
:105800004FF4403242618161C16101620121416214
:10581000FDF744F8002805D0BDE81040582104A049
:1058200002F0AFBA10BD0000280001404006002081
:105830002E2E2F5372632F636F6D702E6300000046
:1058400010B50B48094901600021017141714161A6
:10585000816101210162FDF7E7F8002805D0BDE86C
:1058600010403D2103A002F08CBA10BD0030024070
:10587000100900202E2E2F5372632F6372632E6344
:10588000000000000EB51349114808600846FDF7F6
:1058900074F918B13D2110A002F073FA00200090B5
:1058A0000190002269460B48FDF713F918B1462113
:1058B00009A002F066FA102269460648FDF709F9C8
:1058C000002803D04D2104A002F05BFA0EBD0000B9
:1058D00000740040B80600202E2E2F5372632F64F0
:1058E00061632E630000000008B52148416941F062
:1058F00002014161416901F002010091416941F0F9
:1059000001014161406900F0010000900022114650
:105910000B20FDF789FD0B20FDF77AFD00221146D3
:105920000E20FDF781FD0E20FDF772FD00221146CD
:105930000F20FDF779FD0F20FDF76AFD00221146CB
:105940003820FDF771FD3820FDF762FD0022114679
:105950003920FDF769FD3920FDF75AFD0022114677
:105960003C20FDF761FDBDE808403C20FDF750BD3F
:1059700000100240F0B587B03748416941F400217A
:105980004161416901F400210191416941F48001C3
:105990004161416901F480010191416941F40031A3
:1059A0004161416901F400310191416941F4802173
:1059B0004161406900F480200190284E4FF460441A
:1059C000002221463046FDF7D2FB254F0022302130
:1059D0003846FDF7CCFB029401250395002404947E
:1059E000059402A93046FDF7F1FA0C2002901D4EF5
:1059F0000396049402A93846FDF7E8FA4FF4406094
:105A000002900396049502A93846FDF7DFFAE803F1
:105A100002900394049502A93846FDF7D7FA2803AB
:105A200002900396049402A94FF09040FDF7CEFA3D
:105A30003020029003950494059402A93846FDF79E
:105A4000C5FA002211462820FDF7EEFC2820FDF7BC
:105A5000DFFC07B0F0BD0000001002400008004865
:105A6000000400480000111010B5164814490160E8
:105A700015494160002181600122C26001614161DC
:105A80008161C1610162FDF7D7FB18B142210FA00E
:105A900002F077F900210B48FDF776FB18B1492198
:105AA0000AA002F06EF900210648FDF79AFB0028D3
:105AB00005D0BDE81040502104A002F062B910BD2D
:105AC000005400406C060020812670002E2E2F53BB
:105AD00072632F6932632E630000000010B59AB024
